:1000000047EF07F00000000000EF00F000000000E4
:0A0010000000000000000000F3D71C
:0E001C000001D0B102D08A9201D08A82120077
:0E002A000001D0B102D08B9A01D08B8A120057
:0E0038000001D0B102D0899801D08988120051
:0E0046000001D0B102D08B9601D08B86120043
:0E0054000001D0B102D08B9801D08B88120031
:0E0062000001D0B102D08B9601D08B86120027
:0E0070000001D0B102D08D9201D08D8212001D
:0E007E000001D0B102D08B9401D08B8412000F
:10008C000F0121B302D00000FBD7D0C01CFF12001F
:0E009C000001D0B102D08B9601D08B861200ED
:0E00AA000001D0B102D08A9001D08A801200ED
:0E00B8000001D0B102D08B9E01D08B8E1200C1
:0E00C6000001D0B102D08B9C01D08B8C1200B7
:0E00D4000001D0B102D0899201D089821200C1
:0E00E2000001D0B102D08B9601D08B861200A7
:0E00F0000001D0B102D08B9801D08B88120095
:0E00FE000001D0B102D08F9201D08F8212008B
:0E010C000001D0B102D08B9801D08B88120078
:0E011A000001D0B102D08A9401D08A84120074
:0E0128000001D0B102D08B9E01D08B8E120050
:0E0136000001D0B102D08B9201D08B8212005A
:0E0144000001D0B102D08F9001D08F80120048
:0E0152000001D0B102D08B9A01D08B8A12002E
:0E0160000001D0B102D08F9401D08F84120024
:0E016E000001D0B102D08B9801D08B88120016
:0E017C000001D0B102D08D9401D08D8412000C
:0E018A000001D0B102D08D9601D08D861200FA
:0E0198000001D0B102D08B9801D08B881200EC
:0E01A6000001D0B102D08B9C01D08B8C1200D6
:0E01B4000001D0B102D08B9601D08B861200D4
:0E01C2000001D0B102D08B9A01D08B8A1200BE
:0E01D0000001D0B102D0899401D089841200C0
:0E01DE000001D0B102D08B9601D08B861200AA
:0E01EC00ACB202D00000FCD7D0C0ADFF1200B4
:0E01FA000001D0B102D0899001D0898012009E
:0E0208000001D0B102D08D9001D08D80120087
:0E0216000001D0B102D08B9001D08B8012007D
:0E0224000001D0B102D08B9801D08B8812005F
:0A023200750E0D6E0D2EFED71200A2
:10023C00EC0E0001B96F010EBA6FD00EBB6F000E41
:10024C00BC6FFF0EB56FFF0EB66F000EB76F000ED2
:10025C00B86FFF0EC16FFF0EC26F000EC36F000EA2
:10026C00C46FFF0EBD6FFF0EBE6F000EBF6F000E92
:10027C00C06FAC8A900EAB6E948E949C9EAA03D0E9
:08028C00AECF00F0FBD7120019
:100294008C0E0001B96F000EBA6FD00EBB6F000E4A
:1002A400BC6FFF0EB56FFF0EB66F000EB76F000E7A
:1002B400B86FFF0EC16FFF0EC26F000EC36F000E4A
:1002C400C46FFF0EBD6FFF0EBE6F000EBF6F000E3A
:1002D400C06F0F01218B900E226F98849892A4AA6C
:0A02E40003D01DCF00F0FBD712007D
:1002EE00F250026EF29E0500FF6A0150FE6E005043
:0802FE00FD6E02BEF28E12003B
:1003060021D0CF0EAF6EAC9496DF6BD0670EAF6E7A
:10031600AC9491DF66D0CF0EAF6EAC848CDF61D02B
:10032600670EAF6EAC8487DF5CD0440EAF6EAC84D4
:1003360082DF57D0220EAF6EAC847DDF52D0060E20
:10034600006E58D00001000E006ECF1908E1005073
:10035600CE1905E1120ECD1902E1CC51C00AD1E049
:10036600000E006ECF1908E10050CE1905E1250EEA
:10037600CD1902E1CC51800AC9E0000E006ECF19FA
:1003860008E10050CE1905E14B0ECD1902E1CC5122
:10039600000AC1E0000E006ECF1908E10050CE1928
:1003A60005E1960ECD1902E1CC51000AB9E0000E26
:1003B600006ECF1908E10050CE1905E1E10ECD1906
:1003C60002E1CC51000AB1E0CF51000A08E1CE515A
:1003D600010A05E1CD51C20A02E1CC51000AAAE0A8
:1003E600AED7EC0E756F010E766FD00E776F000EDE
:0603F600786F006A12009E
:1003FC0038D00F0120870D0E1F6F040E1E6F218544
:10040C0043DF7ED00F012087060E1F6F820E1E6FFA
:10041C0021853ADF75D00F012087030E1F6F400E28
:10042C001E6F218531DF6CD00F012087010E1F6FED
:10043C00A00E1E6F218528DF63D00F012087010ECF
:10044C001F6F150E1E6F21851FDF5AD00F012087DD
:10045C001F6B8A0E1E6F218517DF52D0060E006EA1
:10046C0059D0000E006E0001CF1908E10050CE19D2
:10047C0005E1120ECD1902E1CC51C00ABAE0000E12
:10048C00006ECF1908E10050CE1905E1250ECD19EB
:10049C0002E1CC51800AB6E0000E006ECF1908E1E3
:1004AC000050CE1905E14B0ECD1902E1CC51000ADA
:1004BC00B2E0000E006ECF1908E10050CE1905E134
:1004CC00960ECD1902E1CC51000AAEE0000E006E82
:1004DC00CF1908E10050CE1905E1E10ECD1902E16A
:1004EC00CC51000AAAE0CF51000A08E1CE51010A12
:1004FC0005E1CD51C20A02E1CC51000AA7E0AED70A
:10050C0000018C0E756F000E766FD00E776F000E9B
:06051C00786F006A120076
:1005220021D0CF0EAF6EAC9488DE6BD0670EAF6E6B
:10053200AC9483DE66D0CF0EAF6EAC847EDE61D02B
:10054200670EAF6EAC8479DE5CD0440EAF6EAC84C5
:1005520074DE57D0220EAF6EAC846FDE52D0060E20
:10056200006E58D00001000E006ECF1908E1005055
:10057200CE1905E1120ECD1902E1CC51C00AD1E02B
:10058200000E006ECF1908E10050CE1905E1250ECC
:10059200CD1902E1CC51800AC9E0000E006ECF19DC
:1005A20008E10050CE1905E14B0ECD1902E1CC5104
:1005B200000AC1E0000E006ECF1908E10050CE190A
:1005C20005E1960ECD1902E1CC51000AB9E0000E08
:1005D200006ECF1908E10050CE1905E1E10ECD19E8
:1005E20002E1CC51000AB1E0CF51000A08E1CE513C
:1005F200010A05E1CD51C20A02E1CC51000AAAE08A
:10060200AED7EC0E756F010E766FD00E776F000EBF
:06061200786F006A12007F
:1006180059D00001CDB102D0929201D092820F013F
:10062800259376D00001CDB102D0929801D092885E
:100638006FD00001CDB102D0969201D0968268D0D9
:100648000001CDB102D0949601D0948661D000010A
:10065800CDB102D0949801D094885AD00001CDB180
:1006680002D0949A01D0948A53D00001CDB102D01F
:10067800949401D094844CD00001CDB102D09392CF
:1006880001D0938245D00001CDB102D0949E01D013
:10069800948E3ED00001CDB102D0949C01D0948CB0
:1006A80037D00001CDB102D0949601D0948630D0D5
:1006B8000001CDB102D0949801D0948829D0010EC0
:1006C800006E28D00001CC51000AA3E0CC51010AE9
:1006D800A9E0CC51020AADE0CC51030AB1E0CC51FB
:1006E800040AB5E0CC51050AB9E0CC51060ABDE0D0
:1006F800CC51070AC1E0CC51080AC5E0CC51090A1F
:10070800C9E0CC510A0ACDE0CC510B0AD1E0D7D7C9
:06071800000E006E12004D
:10071E0059D00001CDB102D0929001D092800F013C
:10072E00259176D00001CDB102D0949001D0948065
:10073E006FD00001CDB102D0969001D0968068D0D6
:10074E000001CDB102D0949601D0948661D0000103
:10075E00CDB102D0949801D094885AD00001CDB179
:10076E0002D0949A01D0948A53D00001CDB102D018
:10077E00949201D094824CD00001CDB102D09390CE
:10078E0001D0938045D00001CDB102D0949E01D00E
:10079E00948E3ED00001CDB102D0949C01D0948CA9
:1007AE0037D00001CDB102D0949601D0948630D0CE
:1007BE000001CDB102D0949801D0948829D0010EB9
:1007CE00006E28D00001CC51000AA3E0CC51010AE2
:1007DE00A9E0CC51020AADE0CC51030AB1E0CC51F4
:1007EE00040AB5E0CC51050AB9E0CC51060ABDE0C9
:1007FE00CC51070AC1E0CC51080AC5E0CC51090A18
:10080E00C9E0CC510A0ACDE0CC510B0AD1E0D7D7C2
:06081E00000E006E120046
:1008240021D0CF0EAF6EAC9407DD6BD0670EAF6EE8
:10083400AC9402DD66D0CF0EAF6EAC84FDDC61D02B
:10084400670EAF6EAC84F8DC5CD0440EAF6EAC8443
:10085400F3DC57D0220EAF6EAC84EEDC52D0060E21
:10086400006E58D00001000E006ECF1908E1005050
:10087400CE1905E1120ECD1902E1CC51C00AD1E026
:10088400000E006ECF1908E10050CE1905E1250EC7
:10089400CD1902E1CC51800AC9E0000E006ECF19D7
:1008A40008E10050CE1905E14B0ECD1902E1CC51FF
:1008B400000AC1E0000E006ECF1908E10050CE1905
:1008C40005E1960ECD1902E1CC51000AB9E0000E03
:1008D400006ECF1908E10050CE1905E1E10ECD19E3
:1008E40002E1CC51000AB1E0CF51000A08E1CE5137
:1008F400010A05E1CD51C20A02E1CC51000AAAE085
:10090400AED7EC0E756F010E766FD00E776F000EBA
:06091400786F006A12007A
:10091A005DD00001CDB102D0929401D092840F0132
:10092A0025957AD00001CDB102D0969601D096864F
:10093A0073D00001CDB102D0969401D096846CD0C8
:10094A000001CDB102D0949601D0948665D0000101
:10095A00CDB102D0949801D094885ED00001CDB177
:10096A0002D0949A01D0948A57D00001CDB102D016
:10097A00989001D0988050D00001CDB102D09394C4
:10098A0001D0938449D00001CDB102D0989401D00E
:10099A0098840F01239540D00001CDB102D09892DE
:1009AA0001D098820F01239337D00001CDB102D034
:1009BA00949601D0948630D00001CDB102D094989B
:1009CA0001D0948829D0010E006E28D00001CC51A4
:1009DA00000A9FE0CC51010AA5E0CC51020AA9E025
:1009EA00CC51030AADE0CC51040AB1E0CC51050A5E
:1009FA00B5E0CC51060AB9E0CC51070ABDE0CC51AA
:100A0A00080AC1E0CC51090AC7E0CC510A0ACDE074
:0E0A1A00CC510B0AD1E0D7D7000E006E1200AF
:100A2800300E0001CC25F66E000ECD21F76E000EBB
:100A3800CE21F86E0900F5CF79F00900F5CF7AF0EC
:0E0A48000900F5CF7BF00900F5CF7CF012001D
:100A5600830EC216CCC000F000360090003600901F
:100A66000050C21219EC01F0C282C2A201D0FDD719
:100A7600C4CF01F0006A00C0CDF001C0CEF0C35073
:100A86000012000E011200C0CDF001C0CEF0000E23
:100A96000014026E0150800B036E000E031802E173
:100AA600000E021803E00001CD6BCE6BCDC000F046
:060AB600CEC001F01200A9
:100ABC00560E00017D6F0A0E7E6FCC0E7F6F000EFE
:100ACC00806FC26A291C006E0050C1160F0EC01236
:060ADC00C08EC280120072
:100AE20077C0E1FF78C0E2FFCCC0E9FFCDC0EAFFEA
:100AF200EECFE6FF75C000F076C001F077EC01F0B2
:040B0200006A120073
:100B0600C6C000F00032009E0032009E0032009EF9
:100B16000032009E5C0E0024F66E0F0EF76E000E7D
:100B2600F722000EF86E000EF8220900F5CF00F04D
:100B3600C7C0E1FFC8C0E2FF00C0E6FF010E00012A
:100B4600C725E16E000EC821E26E0F0EC615006EB7
:100B56005C0E0024F66E0F0EF76E000EF722000EE6
:100B6600F86E000EF8220900F5CF00F000C0E6FF8F
:100B7600020EC725E16E000EC821E26EC5C000F068
:100B86000032009E0032009E0032009E0032009E1F
:100B96005C0E0024F66E0F0EF76E000EF722000EA6
:100BA600F86E000EF8220900F5CF00F000C0E6FF4F
:100BB600030EC725E16E000EC821E26E0F0EC515A5
:100BC600006E5C0E0024F66E0F0EF76E000EF72216
:100BD600000EF86E000EF8220900F5CF00F000C0F6
:100BE600E6FF040EC725E16E000EC821E26EE66A36
:020BF6001200EB
:100BF80015D0C6C0CCF0C7C0CDF08DDD1AD0C6C0A8
:100C0800CCF0C7C0CDF004DD14D0C6C0CCF0C7C04E
:100C1800CDF07FDE0ED0010E006E0BD00001C55165
:100C2800000AE7E0C551010AEAE0C551020AEDE011
:040C3800F2D71200DD
:100C3C000001CC6B0ADF00C0C5F001C0C6F0000E8D
:100C4C000001C76FC86FC5C000F0C6C001F0C7C0B7
:080C5C0002F0C8C003F0120011
:100C64002DD0C6C0CCF0C7C0CDF0C8C0CEF0C9C02E
:100C7400CFF0D6DD31D0C6C0CCF0C7C0CDF0C8C0EF
:100C8400CEF0C9C0CFF083EC01F026D0C6C0CCF0C2
:100C9400C7C0CDF0C8C0CEF0C9C0CFF0FEEC01F0A3
:100CA4001BD0C6C0CCF0C7C0CDF0C8C0CEF0C9C000
:100CB400CFF035DC11D0010E006E0ED00001C5510D
:100CC400000ACFE0C551010AD6E0C551020ADEE0B0
:0A0CD400C551100AE6E0EFD7120048
:100CDE00520E0B6E2B0E0C6E000E0D6E0D2EFED7E1
:0C0CEE000C2EFCD70B2EFAD700001200D1
:100CFA00090E0B6E1E0E0C6EE40E0D6E0D2EFED737
:0C0D0A000C2EFCD70B2EFAD700001200B4
:100D1600C5C0CCF0C6C0CDF0C7C0CEF082DE120092
:100D2600C5C0C8F0C6C0C9F00D0E0001CA6F0A0ED4
:100D3600CB6F35D0C8C0CCF0C9C0CDF0CFDE3AD02D
:100D4600C8C0E9FFC9C0EAFFEE5209E0C8C0CCF04E
:100D5600C9C0CDF0C3DE0001C84BC92BF1D72AD0DC
:100D6600C8C0E9FFC9C0EAFFEE5209E0C8C0CCF02E
:100D7600C9C0CDF0B3DE0001C84BC92BF1D70001C5
:100D8600CA0ECC6F000ECD6FA9DECB0E0001CC6F64
:100D9600000ECD6FA3DE0ED0060E006E0CD0000145
:100DA600C751000AC7E0C751010ACAE0C751020A83
:080DB600D7E0F2D7006A120039
:040DBE007EDE1200C3
:100DC2000001C56BC66B010EC76F15DF100E000167
:100DD200C56F800EC66F250EC76F000EC86FC96F34
:060DE20040DF8ADF120071
:100DE8000900F5CFE6FF0006FBE10106F9E1120074
:100DF800FC0E0001C56F0E0EC66F000EC76F87DFB1
:100E080078DFD9DF76DF2A0EC56F000EC66F020EB7
:100E1800C76F85DF3E0E0001C56F000EC66F020E5C
:100E2800C76F7DDF150E0001C56F000EC66F020E7D
:060E3800C76F75DF120018
:100E3E00FEDE00C081F001C082F058DF81C0C5F037
:100E4E0082C0C6F0830EC76F000EC86F55DE660EE9
:100E5E00C56F000EC66F010EC76F5EDF830E0001F9
:100E6E00C56F000EC66F020EC76F56DF520E000121
:100E7E00C56F000EC66F020EC76F4EDF29DF120060
:0E0E8E00B6EC07F097DFB1DFD3DFFED7FFD75A
:100F6C0010EE15F0600E006E010E016E9C0EF66E0A
:0E0F7C000E0EF76E000EF86EF4EC06F012008A
:100E9C002D2D2D2D2D2D2D2D2D2D2D2D2D2D2D2D76
:040EAC002D2D2D00BB
:010EB0003809
:100EB1002D2D2D2D2D2D2D2D2D2D2D2D2D2D2D2D61
:040EC1002D2D2D00A6
:100EC500202020416C636F686F6C20436C69636BF5
:040ED50020202000B9
:100ED9002D2D2D2D2D2D2D2D2D2D2D2D2D2D2D2D39
:040EE9002D2D2D007E
:0F0EED00204144432076616C75653A20307800CF
:100EFC00FA01D0001602D0000802D0009C00D000ED
:100F0C000C01D000C201D0003601D000AA00D000E4
:100F1C00B800D000C600D0004600D000F000D000D1
:100F2C00FFFFFFFFFFFFFFFFFFFFFFFFFFFFFFFFC5
:100F3C00FFFFFFFFFFFFFFFFFFFFFFFFFFFFFFFFB5
:100F4C00FFFFFFFFFFFFFFFFFFFFFFFFFFFFFFFFA5
:100F5C0030313233343536373839414243444546E3
:020000040030CA
:0E00000015137F7CF98B91FFFFC0FFE0FF40DE
:00000001FF
